:020000040800F2
:10000000FF7F012039020008F902000805030008FB
:100010000D030008150300081D0300080000000080
:1000200000000000000000000000000025030008A0
:1000300031030008000000003D03000849030008E8
:100040008902000889020008890200088902000864
:100050008902000889020008890200088902000854
:100060008902000889020008890200088902000844
:100070008902000889020008890200088902000834
:1000800089020008890200088902000800000000B7
:1000900000000000000000000000000089020008CD
:1000A0008902000889020008890200088902000804
:1000B00089020008890200088902000889020008F4
:1000C00089020008890200088902000889020008E4
:1000D0008902000889020008890200080000000067
:1000E0008902000889020008890200080000000057
:1000F000000000000000000000000000890200086D
:100100000000000089020008890200088902000836
:1001100000000000000000000000000000000000DF
:100120008902000889020008890200088902000883
:10013000890200080000000000000000000000002C
:10014000000000000000000000000000890200081C
:100150008902000889020008890200088902000853
:100160008902000889020008000000000000000069
:10017000000000000000000000000000000000007F
:1001800000000000890200080000000000000000DC
:1001900089020008044B05481B1A062B02D9044BA0
:1001A00003B11847704700BF3B040020380400200B
:1001B0000000000005490648091A891001EBD171B9
:1001C000491002D0034B03B1184770473804002090
:1001D000380400200000000010B5064C237843B915
:1001E000FFF7D8FF044B13B10448AFF3008001239D
:1001F000237010BD3804002000000000AC0C000883
:1002000008B5084B1BB108480849AFF300800848FF
:10021000036813B9BDE80840CCE7064B002BF9D0C2
:100220009847F7E700000000AC0C00083C040020F1
:100230003404002000000000DFF834D0002103E087
:100240000C4B5B58435004310B480C4B42189A42FC
:10025000F6D30B4A02E0002342F8043B094B9A42D2
:10026000F9D300F013F800F08DFC00F08DF8704722
:10027000FF7F0120B00C000800000020380400209F
:100280003804002058040020FEE7000080B400AFCE
:10029000164A164BD3F8883043F47003C2F88830FE
:1002A000134A134B1B6843F001031360104B0022E9
:1002B0009A600F4A0E4B1B6823F0847323F480333B
:1002C00013600B4B0B4A5A60094A094B1B6823F415
:1002D00080231360064B0022DA60044B4FF000626B
:1002E0009A60BD465DF8047B704700BF00ED00E0FA
:1002F000003802401030002480B400AFBD465DF8E5
:10030000047B704780B400AFFEE700BF80B400AF4D
:10031000FEE700BF80B400AFFEE700BF80B400AFCF
:10032000FEE700BF80B400AFBD465DF8047B7047B8
:1003300080B400AFBD465DF8047B704780B400AF69
:10034000BD465DF8047B704780B500AF00F09EF8B5
:1003500080BD00BF80B485B000AF786009E041F295
:100360005373FB6000E000BFFB685A1EFA60002B6D
:10037000F9DC7B685A1E7A60002BF0DC1437BD462E
:100380005DF8047B704700BF80B500AF104A104B8A
:100390001B6B43F0010313630E4A0E4B1B6843F4BF
:1003A000806313600B4A0B4B9B6843F400639360BC
:1003B000084A084BDB6843F48063D360054A054B69
:1003C0005B6983F0200353616420FFF7C3FFF5E707
:1003D000003802400000024080B500AF0E4A0E4BCC
:1003E0001B6843F4007313600B4A0B4B1B6843F408
:1003F00080631360084A084B1B6843F480731360E2
:100400004FF47A5000F012FB032000F0C7FA00F01E
:1004100031F80023184680BD003C024080B500AF93
:10042000134B4FF0FF321A62114B00221A62104B2D
:100430004FF0FF325A620E4B00225A620C4B4FF0C3
:10044000FF321A610A4B00221A61094B4FF0FF324A
:100450005A61074B00225A61054B4FF0FF329A61F7
:10046000034B00229A6100F00BF80023184680BD70
:100470000038024080B400AFBD465DF8047B704791
:1004800080B400AFBD465DF8047B704780B400AF18
:10049000044B1B680133034A1360BD465DF8047BBF
:1004A000704700BF5404002080B400AF034B1B68AA
:1004B0001846BD465DF8047B704700BF5404002019
:1004C00080B584B000AF7860FFF7EEFF02467B682E
:1004D0001344FB6000BFFFF7E7FF0246FB689A4248
:1004E000F9D31037BD4680BD80B400AF4FF08073A4
:1004F0001846BD465DF8047B704700BF80B400AF6E
:10050000034B1B681B0C1846BD465DF8047B704707
:10051000002004E080B400AF044B1B68C3F30B035E
:100520001846BD465DF8047B704700BF002004E01C
:1005300080B400AF044A044B5B6843F0010353608E
:10054000BD465DF8047B7047002004E080B400AF36
:10055000044A044B5B6823F001035360BD465DF819
:10056000047B7047002004E080B400AF044A044BD1
:100570005B6843F002035360BD465DF8047B70473F
:10058000002004E080B400AF044A044B5B6823F011
:1005900002035360BD465DF8047B7047002004E011
:1005A00080B400AF044A044B5B6843F0040353601B
:1005B000BD465DF8047B7047002004E080B400AFC6
:1005C000044A044B5B6823F004035360BD465DF8A6
:1005D000047B7047002004E080B400AF034B01228D
:1005E0001A60BD465DF8047B704700BF00042742D7
:1005F00080B400AF034B00221A60BD465DF8047B57
:10060000704700BF0004274280B485B000AF786017
:100610007B6803F00703FB600C4BDB68BB60BA68C8
:100620004FF6FF031340BB60FB681A02BB6813431D
:1006300043F0BF6343F40033BB60044ABB68D3603C
:100640001437BD465DF8047B704700BF00ED00E045
:1006500080B400AF044BDB6803F4E0631B0A184668
:10066000BD465DF8047B704700ED00E080B483B0C8
:1006700000AF0346FB71084997F907305B09FA7927
:1006800002F01F02012000FA02F241F823200C3789
:10069000BD465DF8047B704700E100E080B483B0A4
:1006A00000AF0346FB71094997F907305B09FA79F6
:1006B00002F01F02012000FA02F2203341F8232049
:1006C0000C37BD465DF8047B704700BF00E100E0D9
:1006D00080B483B000AF0346FB710C4A97F9073032
:1006E0005B09403352F82330FA7902F01F020121EE
:1006F00001FA02F21340002B01D0012300E0002395
:1007000018460C37BD465DF8047B704700E100E0F9
:1007100080B483B000AF0346FB71094997F90730F5
:100720005B09FA7902F01F02012000FA02F240335D
:1007300041F823200C37BD465DF8047B704700BFAD
:1007400000E100E080B483B000AF0346FB710949CB
:1007500097F907305B09FA7902F01F02012000FACD
:1007600002F2603341F823200C37BD465DF8047B6C
:10077000704700BF00E100E080B483B000AF0346E3
:10078000FB710C4A97F907305B09803352F823302C
:10079000FA7902F01F02012101FA02F21340002B44
:1007A00001D0012300E0002318460C37BD465DF858
:1007B000047B704700E100E080B483B000AF0346E3
:1007C0003960FB7197F90730002B0BDA0D49FB7983
:1007D00003F00F03043B3A68D2B21201D2B20B44C9
:1007E0001A7609E0084997F907303A68D2B212013F
:1007F000D2B20B4483F800230C37BD465DF8047B6E
:10080000704700BF00ED00E000E100E080B483B07D
:1008100000AF0346FB7197F90730002B0ADA0D4A47
:10082000FB7903F00F03043B13441B7EDBB21B096F
:10083000DBB208E0084A97F90730134493F8003315
:10084000DBB21B09DBB218460C37BD465DF8047BF2
:10085000704700BF00ED00E000E100E080B489B027
:1008600000AFF860B9607A60FB6803F00703FB61D2
:10087000FB69C3F10703042B28BF0423BB61FB6999
:100880000433062B02D9FB69033B00E000237B61A4
:10089000BB69012202FA03F3013B1A46BB681A4006
:1008A0007B699A407B69012101FA03F3013B1946F8
:1008B0007B680B40134318462437BD465DF8047B24
:1008C000704700BF80B489B000AFF860B9607A604B
:1008D0003B60BB6803F00703FB61FB69C3F10703DF
:1008E000042B28BF0423BB61FB690433062B02D908
:1008F000FB69033B00E000237B617B69FA6822FA15
:1009000003F3BA69012101FA02F2013A1A407B6845
:100910001A607B69012202FA03F3013B1A46FB6865
:100920001A403B681A602437BD465DF8047B704767
:1009300080B400AFBFF34F8F0549054BDB6803F46C
:10094000E062044B1343CB60BFF34F8FFEE700BF61
:1009500000ED00E00400FA0580B582B000AF7860D9
:100960007B68013BB3F1807F01D301230FE00A4A8A
:100970007B68013B53604FF0FF300F21FFF71CFFF6
:10098000054B00229A60044B07221A600023184688
:100990000837BD4680BD00BF10E000E080B582B0E2
:1009A00000AF78607868FFF72FFE0837BD4680BD3E
:1009B00080B586B000AF0346B9607A60FB73002350
:1009C0007B61FFF745FE78617869B9687A68FFF75F
:1009D00045FF024697F90F3018461146FFF7ECFE27
:1009E0001837BD4680BD00BF80B582B000AF03465A
:1009F000FB7197F907301846FFF738FE0837BD46F8
:100A000080BD00BF80B582B000AF0346FB7197F98F
:100A100007301846FFF742FE0837BD4680BD00BFCD
:100A200080B500AFFFF784FF80BD00BF80B582B006
:100A300000AF78607868FFF78FFF034618460837E5
:100A4000BD4680BD80B500AFFFF702FE03461846E5
:100A500080BD00BF80B584B000AFB9607A603B60F4
:100A60000346FB7397F90F301846FFF7CFFE034696
:100A70001846B9687A683B68FFF724FF1037BD460F
:100A800080BD00BF80B582B000AF0346FB7197F90F
:100A900007301846FFF73CFE0837BD4680BD00BF53
:100AA00080B582B000AF0346FB7197F90730184656
:100AB000FFF70EFE034618460837BD4680BD00BF4F
:100AC00080B582B000AF0346FB7197F90730184636
:100AD000FFF738FE0837BD4680BD00BF80B582B045
:100AE00000AF0346FB7197F907301846FFF744FE45
:100AF000034618460837BD4680BD00BF80B483B0AA
:100B000000AF78607B68042B06D1094A084B1B684C
:100B100043F00403136005E0054A054B1B6823F00E
:100B2000040313600C37BD465DF8047B704700BFBB
:100B300010E000E080B500AF00F002F880BD00BF1B
:100B400080B400AFBD465DF8047B704701460020CD
:100B50000246034600F03EB838B5084B084DED1A82
:100B6000AC1018BFED1805D0013C55F8043D98476E
:100B7000002CF9D1BDE8384000F08EB830040020D8
:100B80003404002070B50F4E0F4D761BB61018BF01
:100B9000002405D0013455F8043B9847A642F9D10A
:100BA0000A4E0B4D761B00F071F8B61018BF0024EA
:100BB00006D0013455F8043B9847A642F9D170BDE0
:100BC00070BD00BF2804002028040020300400204D
:100BD000280400202DE9F047254C2568D5F8484128
:100BE0000646884692469946CCB360681F2818DCB2
:100BF000431C7EB104EB80050121C5F888A0D4F820
:100C0000887101FA00F21743022EC4F88871C5F802
:100C100008911ED00230636044F820800020BDE8B7
:100C2000F087144B03B34FF4C870AFF30080044651
:100C3000D0B1D5F84831002780E88800C5F8484190
:100C400038460123C4F88871C4F88C71002EE1D0B5
:100C5000D0E7D4F88C110A43C4F88C21DAE705F503
:100C6000A674C5F84841C0E74FF0FF30BDE8F087F3
:100C7000A80C000800000000024B13B10248FFF767
:100C800065BF704700000000590B0008F8B500BFB1
:100C9000F8BC08BC9E467047F8B500BFF8BC08BC5D
:100CA0009E46704743000000000000200000000046
:100CB00000000000EC02002054030020BC030020D0
:100CC0000000000000000000000000000000000024
:100CD0000000000000000000000000000000000014
:100CE00000000000A40C000800000000000000004C
:100CF00000000000000000000000000000000000F4
:100D000000000000000000000000000000000000E3
:100D100000000000000000000000000000000000D3
:100D200000000000000000000000000000000000C3
:100D300000000000000000000000000000000000B3
:100D400000000000000000000000000000000000A3
:100D50000000000000000000010000000000000092
:100D60000E33CDAB34126DE6ECDE05000B00000057
:100D70000000000000000000000000000000000073
:100D80000000000000000000000000000000000063
:100D90000000000000000000000000000000000053
:100DA0000000000000000000000000000000000043
:1010D0000000000000000000790C00080102000878
:0810E000D90100080000000026
:0400000508000239B4
:00000001FF
